:020000040000fa
:080000000002040000000000f2
:020000040000fa
:10000800d2020000d2020000d2020000d202000098
:10001800d2020000d2020000d2020000d202000088
:10002800d2020000d2020000d2020000d202000078
:10003800d2020000d2020000d2020000d202000068
:100048006a230000d2020000d2020000d20200009f
:10005800d2020000d2020000d2020000d202000048
:10006800d2020000d2020000d2020000d202000038
:10007800d2020000d2020000d2020000d202000028
:10008800d2020000d2020000d2020000d202000018
:10009800d2020000d2020000d2020000d202000008
:1000a800d2020000d2020000d2020000d2020000f8
:1000b800d2020000d2020000d2020000d2020000e8
:1000c800d2020000d2020000d2020000d2020000d8
:1000d800d2020000d2020000d2020000d2020000c8
:1000e800d2020000d2020000d2020000d2020000b8
:1000f800d2020000d2020000d2020000d2020000a8
:10010800d2020000d2020000d2020000d202000097
:10011800d2020000d2020000d2020000d202000087
:10012800d2020000d2020000d2020000d202000077
:10013800d2020000d2020000d2020000d202000067
:10014800d2020000d2020000d2020000d202000057
:10015800d2020000d2020000d2020000d202000047
:10016800d2020000d2020000d2020000d202000037
:10017800d2020000d2020000e4270000d2020000f0
:10018800d2020000d2020000d2020000d202000017
:10019800d2020000d2020000d2020000d202000007
:1001a800d2020000d2020000d2020000d2020000f7
:1001b800d2020000d2020000d2020000d2020000e7
:1001c800d2020000d2020000d2020000d2020000d7
:1001d800d2020000d2020000d2020000d2020000c7
:1001e800d2020000d2020000d2020000d2020000b7
:1001f800d2020000d2020000d2020000d2020000a7
:10020800d2020000d2020000d2020000d202000096
:10021800d2020000d2020000d2020000d202000086
:10022800d2020000d2020000d2020000d202000076
:10023800d2020000d2020000d2020000d202000066
:10024800d2020000d2020000d2020000d202000056
:10025800d2020000d2020000d2020000d202000046
:020000040000fa
:10040000cf1121000eff27000e0188000000000020
:10041000000020000000e000020032000001200087
:10042000200288000c000700009322000100200039
:100430000f000700000020000000e0000200320072
:1004400000000200000000000a2802000000000076
:100450000040da000000fe00800c20000000e000f8
:1004600002003200002020009001880000000600f9
:10047000a1028800800078000000eb001a0037001d
:10048000e280400054a0b4009101ba00e280400034
:1004900054a0b4009102ba00e280400054a0b4001d
:1004a0000002eb00472bde00f507b200a601880032
:1004b000602ce10008003a000049eb000201e8006e
:1004c000020039003420ec0002f0a0008301e900b2
:1004d000f9ff3e00040037006128e100010032000e
:1004e0000082eb00040007001101ba000200e000e6
:1004f000e3ff3a000000060004d0a300e20f490029
:100500001c003900810278003549ba000201e80078
:10051000020039003420ec0002f0a0008301e90061
:100520000f0032002549ba000201e800020039003c
:100530003420ec0002f0a0008301e9000800320042
:100540000400e0000600320015c9ba000201e8000c
:10055000020039003420ec0002f0a0008301e90021
:100560008180e80054a0b4000300e000e2ff3a00fc
:10057000000006009102ba00055978008301e900e5
:10058000f7ff3200c82ade00055978008301e90030
:10059000f3ff32000400e000f1ff320011d9ba008d
:1005a000eeff37000040da000000fe000400fa0011
:1005b0000e027800000f7800012a78000d00370045
:1005c0009e0378001e039000174078009642780042
:1005d0000201e900854f5000040032000080fb005a
:1005e0008582fb000500500005003700070fe8007a
:1005f000060ae800e00f5100f1ff3a00020078001f
:100600000080fa00000006000000fa0000027800f6
:1006100002003700315a78000201e900e00f510072
:10062000fcff3a000080fa00000006000000fa001b
:100630000002780002003700015a78000201e90048
:10064000e00f5100fcff3a000080fa0000000600b5
:020000040000fa
:10065000120100000002000000000000000800007d
:10066000d80400003f00000000010000010200006b
:100670000001000009020000290000000101000043
:1006800000c0000032090000040000000002000069
:10069000030000000000000009210000110100001b
:1006a00000010000221d000000070000058100007d
:1006b00003400000000100000705000001030000e6
:1006c00040000000010000000403000009040000d5
:1006d000340300004d0000006900000063000000ca
:1006e000720000006f00000063000000680000005e
:1006f00069000000700000002000000054000000ad
:100700006500000063000000680000006e0000004b
:100710006f0000006c0000006f0000006700000028
:100720007900000020000000490000006e00000079
:10073000630000002e0000002e03000053000000a4
:10074000690000006d000000700000006c000000f7
:100750006500000020000000480000004900000083
:10076000440000002000000044000000650000007c
:1007700076000000690000006300000065000000d2
:100780002000000044000000650000006d00000033
:100790006f00000006000000ff09000001a100003a
:1007a000011900000129000040150000002600008a
:1007b000ff00000075080000954000008100000067
:1007c000190100002940000091000000c000000055
:1007d0003a83000064830000688300009c8300006b
:020000040000fa
:1007e0000200fa002ac8a9000082eb002426880033
:1007f0000082eb00042688000002eb00042788003a
:10080000220020008000eb00204e200087ff070020
:100810000002eb00e42688000002eb00f4268800ca
:100820008e44a900f409200034268800f409200031
:10083000142688008ac4a8009004a800040021009f
:100840004822de00742688000042eb00044f780046
:10085000080037009e4278000582fb00c322dd00bd
:1008600004002100048342006022b800048bbe0013
:100870001e4fe8001e427800e74f5200f5ff360099
:10088000ca24a8000002eb0064268800caa4a900bc
:10089000ca24a90084002000042688000042eb003e
:1008a00084427800860d2100054b78000042eb0061
:1008b00084427800e60d2100054b7800f586800023
:1008c000f40f200004826200f4868800058780000f
:1008d00004f02f0004826200048788000426800050
:1008e00068026200e00f5200eaff3a0014c0b30051
:1008f00084427800260f2100054b780014c0b30015
:1009000084427800360f2100054b78000042eb004e
:1009100084427800460f2100054b78000042eb002e
:1009200084427800560f2100054b78000042eb000e
:1009300084427800760e2100054b78000042eb00df
:10094000044f78001b0037001e4378000682fb002e
:1009500084024200040d2100048242008002eb0068
:10096000050a78009e4278000582fb00840242005e
:10097000c40c2100048242008002eb00050a7800ca
:100980001e4378008682fb00c40e210004824200d0
:100990008042eb00054a78001e4278008482fb000a
:1009a000e40e2100048242008042eb00054a7800f8
:1009b0001e4fe8001e427800e14f5200e2ff360071
:1009c0000401210084868800d400200004278800c8
:1009d000b40f2100248088001580800004c02f00ff
:1009e000048262000430a0001480880044002000cb
:1009f0000480880005808000040820000502720041
:100a0000048088000042eb0004437800650c21005c
:100a1000864a78006022b800b4878800c5878800bd
:100a20000042eb0004437800a50f2100864a7800bd
:100a30000002eb00248688000080fa000000060017
:100a40000200fa0024868000e10f52000b003a00f9
:100a5000552680000404200004826200e00f52004a
:100a600006003a00f4fe2f0004268800c204a80005
:100a7000c284a8002400200024868800442480002a
:100a800070026200e00f5200070032005424800020
:100a900070026200e00f52000300320004012000e7
:100aa00044248800e8070700842480006202620072
:100ab000e00f5200020032000ac8a900b10037005e
:100ac0000426800061026200e00f52000a0032003a
:100ad0001426800061026200e00f5200060032001e
:100ae0003fff07002ac8a800440020002486880091
:100af0001400200004268800042680007002620092
:100b0000e00f5200050032001426800070026200df
:100b1000e00f520001003200b907070045248000b1
:100b20000404200004826200e00f5200030032003f
:100b30000404200044248800980b07000426800049
:100b400064026200e00f5200190032001426800097
:100b500064026200e00f5200040032001200200024
:100b60008000eb00300720003b110700440020000c
:100b700004268800040f210014427800e04f520040
:100b800006003200040f2100144278000442e900fc
:100b900004437800050f2100864a7800040f2100e5
:100ba00014427800e04f520001003a00ec020700c6
:100bb000052680000408200004826200e00f520035
:100bc000060032001526800004082000048262001e
:100bd000e00f5200010032004b070700042680009e
:100be00062026200e00f52000c0032001426800006
:100bf00062026200e00f5200080032001200200082
:100c00008000eb00f0ff2700131107000082eb00cb
:100c100024268800240020000426880024868000e2
:100c2000e30f520002003e000ac8a9005500370039
:100c30001426800068026200e00f5200500032006b
:100c40000042eb00044f7800480037000426800083
:100c500068026200e00f5200480032004426800023
:100c60000442780004437800850e2100864a78000b
:100c7000840e2100144278000482fb004422de002e
:100c80000442780004437800950e2100864a7800db
:100c90008400200004268800840e2100144278007d
:100ca00068426200e04f520013003a00940e2100a7
:100cb000144278000483fb008482fb00e40e2100d0
:100cc000048242009442780061c262000404a200df
:100cd000e1426200e40e210004024300e1c262002e
:100ce00094437800e6cfb30006c3630085427300e7
:100cf000054a780012003700940e21001442780053
:100d00000483fb008482fb00c40e210004824200a5
:100d10009442780061c262000404a200e1426200d1
:100d2000c40e210004024300e1c262009443780033
:100d3000e6cfb30006c3630085427300054a78001e
:100d4000940e210014427800e04f520002003a0055
:100d50004f070700040037000001eb00810e21005f
:100d600020072000bc1007001e4fe8001e4278003c
:100d7000e34f5200b5ff36000100370000000000cd
:100d80000ac8a9000080fa00000006000400fa006a
:100d900020479800314798003e4290000482fb00b3
:100da00068026200e00f5200030032008040eb0056
:100db0002e409000910307003e4290000482fb0009
:100dc00064026200e00f52000300320011c0b30061
:100dd0002e40900089030700054e20002e4290000f
:100de0000482fb0004024200048f42001e027800cd
:100df000be429000054a78000080fa00000006001c
:100e00000800fa0020479800314798002207980010
:100e1000634798003e429000e04f520007003200c6
:100e20002e4290000482fb0084024200040d210047
:100e300004824200140f7800060037002e42900012
:100e40000482fb0084024200c40c210004824200a0
:100e5000140f78001e027800e00f520002003a00e2
:100e60000002eb0080003700ae0290001e02780006
:100e7000f60f200006836200c4439000e0c36300c5
:100e800006c3730046429800c82ade00544390000f
:100e90006043630085427300554298006e429000a3
:100ea0008482fb00f43f2000848262001e027800ee
:100eb000f60f200006836200a4439000e0c36300a5
:100ec00006c3730026429800c82ade00e38262004f
:100ed000e3c26200b4439000c6cfb30006c3630010
:100ee00085427300354298001e0278001443780052
:100ef0008682fb00144290000482fb004822dd0041
:100f0000048272008402780004042000848262005b
:100f10001e027800f60f20000683620094437800da
:100f2000e0c3630006c37300064a7800c82ade00e7
:100f3000144390006043630085427300154298009b
:100f40001e027800144378008682fb001442900051
:100f50000482fb004822dd000482720084027800d3
:100f60000530a0001e027800f60f20000683620004
:100f700094437800e0c3630006c37300064a780018
:100f8000c82ade001443900060436300854273006a
:100f9000154298001e027800144378008682fb00f8
:100fa000144290000482fb004822dd00048272009b
:100fb0008402780004082000850272001e02780076
:100fc000f60f20000683620094437800e0c36300bc
:100fd00006c37300064a7800c82ade001443900056
:100fe0006043630085427300154298003e429000c2
:100ff000e04f52000e003200050d21002e429000fd
:101000000482fb000402420084824200060d21009b
:101010002e4290000482fb000402420004024300be
:10102000144278000434a200844a78000d0037008e
:10103000c50c21002e4290000482fb0004024200f5
:1010400084824200c60c21002e4290000482fb00e4
:101050000402420004024300144278000434a20057
:10106000844a78001e027800040078000080fa00ac
:10107000000006000400fa0020479800314798005d
:101080002e429000e04f520053003a0054868000f8
:10109000a4429000e0c262000534a00025429800fe
:1010a00034439000c5cfb3008542630035429800b9
:1010b00054868000b50f2100f60f200006836200e1
:1010c000c4439000e0c3630006c373004642980027
:1010d000c82ade00544390006043630085427300d9
:1010e000554298005486800094427800e0c2620025
:1010f000c540b300054a780094429000e0c2620007
:1011000015429800548680005586800095437800eb
:101110000783fb00954290008582fb00c82add0012
:10112000850273000503780005082000868272009e
:10113000f60f20000683620094437800e0c363004a
:1011400006c37300064a7800c82ade0014439000e4
:1011500060436300854273001542980084868000d6
:1011600094427800e0c262000524a000054a78009d
:1011700094429000e0c2620015429800848680008c
:1011800085868000954378000783fb009542900098
:101190008582fb00c82add00850273000503780004
:1011a0000508200086827200f60f20000683620088
:1011b00094437800e0c3630006c37300064a7800d6
:1011c000c82ade0014439000604363008542730028
:1011d000154298006c0037002e4290000482fb00fc
:1011e00004024200840278003e4290000482fb0028
:1011f000048242004422dd008402780004002100c1
:10120000048f42001e027800144378008682fb009f
:10121000144290000482fb004822dd000482720028
:10122000840278000520a0001e027800f60f20003e
:101230000683620094437800e0c3630006c3730032
:10124000064a7800c82ade00144390006043630019
:1012500085427300154298001e027800944378007e
:101260008782fb00144290000482fb004822dd00cc
:101270000482720084027800040820008502720053
:101280001e027800f60f2000068362009443780067
:10129000e0c3630006c37300064a7800c82ade0074
:1012a0001443900060436300854273001542980028
:1012b0002e4290000482fb00040242008402780067
:1012c0003e4290000482fb00048242004422dd0082
:1012d000e802420004002100048f42001e02780050
:1012e000144378008682fb00144290000482fb00c5
:1012f0004822dd0004827200840278000520a000ec
:101300001e027800f60f20000683620094437800e6
:10131000e0c3630006c37300064a7800c82ade00f3
:1013200014439000604363008542730015429800a7
:101330001e027800944378008782fb0014429000dc
:101340000482fb004822dd000482720084027800df
:1013500004082000850272001e027800f60f2000ab
:101360000683620094437800e0c3630006c3730001
:10137000064a7800c82ade001443900060436300e8
:1013800085427300154298000080fa0000000600b4
:101390000200fa00004f7800552680000402200069
:1013a00004826200e00f5200c00032009e427800ca
:1013b0000582fb0084024200040d210004824200e9
:1013c000140378009e4378000782fb0084024200e9
:1013d000040d210004824200940378001742780033
:1013e0000480fb00974090008180fb00c808dd006e
:1013f0000100700000027800274090000080fb0090
:10140000b74390008783fb00c83bdd008703700073
:101410008702780000042000010020000401780009
:10142000850278008003780001027800870361005c
:10143000048262006120b800c000dd0000002000ce
:101440000002be006138b8000002720081827200a2
:10145000f70f2000870362001640780060406000ac
:1014600087437000074b7800c823de0016409000c9
:10147000604060008743700017439800f70f20001a
:1014800087836200264090006040600087437000c0
:1014900027439800482ade00b6429000e0c262006e
:1014a00004c27200344398009e4278000582fb001b
:1014b00084024200040d21000482420014027800dc
:1014c0001e4378008682fb0005834200050d210043
:1014d0008502430095027800954378000780fb0061
:1014e000954090008180fb00c808dd00010070007d
:1014f00000037800254090000080fb00b54290007a
:101500008582fb00c82add00850270008503780013
:10151000000420000100200000036b0081836b00a9
:10152000f50f2000850263001440780060406000e1
:1015300085427000054a7800c832de0014409000f1
:10154000604060008542700015429800f50f200051
:1015500085826300244090006040600085427000f6
:1015600025429800c83ade0034439000604363008f
:101570008542730035429800050d21001e43780016
:101580000682fb000402420084824200060d210014
:101590009e4378000782fb000402420004024300dd
:1015a000144278000434a200844a78009e427800f5
:1015b0000582fb0084024200040d210004824200e7
:1015c000140278001e4378008682fb0005834200e7
:1015d000050d2100850243009502780095437800af
:1015e0000783fb00954290008582fb00c82add003e
:1015f000850273000503780005042000850263005e
:10160000f60f20000683620094437800e0c3630075
:1016100006c37300064a7800c82ade00144390000f
:101620006043630085427300154298009e42780033
:101630000582fb0084024200040d21000482420066
:10164000140278001e4378008682fb000583420066
:10165000050d21008502430095027800954378002e
:101660000783fb00954290008582fb00c82add00bd
:1016700085027300050378000504200085026b00d5
:10168000f60f20000683620094437800e0c36300f5
:1016900006c37300064a7800c82ade00144390008f
:1016a0006043630085427300154298000080fa0091
:1016b000000006000000fa000002eb00542688003b
:1016c0000002eb00142688000002eb00248688004c
:1016d0000080fa00000006000000fa002486800066
:1016e000e00f52001c003a000002eb005426880074
:1016f0000002eb00142688000002eb00e4268800bc
:101700000002eb00f42688008e44a900f4092000b2
:1017100034268800f4092000142688008ac4a80012
:101720002ac8a800544380000480a1000490a100ae
:1017300004a0a0005443880001003700ca04a80098
:101740005426800061026200e00f5200fbff32006d
:1017500014002000248688000080fa0000000600a3
:101760000000fa00240f2100144278000404a200b3
:10177000e04f52009800320014c0b30004437800d8
:10178000250f2100864a7800340f2100144278008a
:101790000404a200e04f52008f00320014c0b300d6
:1017a00084427800370f2100854b7800540d2100ca
:1017b00014427800e24f520028003a0084868000ec
:1017c000a4429000e0c26200254298003443900099
:1017d000c5cfb300854263003542980084868000ff
:1017e0009442780060c3620085c4b30085427300f0
:1017f000054a780094429000e0c2620015429800c9
:101800008486800085868000954378000783fb00ee
:10181000954290008582fb00c82add008502730096
:10182000050378000508200086827200f60f20006c
:101830000683620094437800e0c3630006c373002c
:10184000064a7800c82ade00144390006043630013
:1018500085427300154298005f003700540d210047
:1018600014427800e14f52005b003a000042eb0066
:1018700004437800a50e2100864a78004486800043
:10188000a4429000e0c262000534a0002542980006
:1018900034439000c5cfb3008542630035429800c1
:1018a00044868000b50f2100f60f200006836200f9
:1018b000c4439000e0c3630006c37300464298002f
:1018c000c82ade00544390006043630085427300e1
:1018d000554298004486800094427800e0c262003d
:1018e0000524a000054a780094429000e0c26200fe
:1018f0001542980044868000458680009543780014
:101900000783fb00954290008582fb00c82add001a
:1019100085027300050378000508200086827200a6
:10192000f60f20000683620094437800e0c3630052
:1019300006c37300064a7800c82ade0014439000ec
:1019400060436300854273001542980014c0b300e1
:1019500004437800a50e2100864a78005486800052
:10196000a4429000e0c262000534a0002542980025
:1019700034439000c5cfb3008542630035429800e0
:1019800054868000b50f2100f60f20000683620008
:10199000c4439000e0c3630006c37300464298004e
:1019a000c82ade0054439000604363008542730000
:1019b00055429800548680009442780060c36200cb
:1019c00005c8b30085427300054a78009442900030
:1019d000e0c26200154298000080fa000000060094
:1019e0000000fa000042eb0004437800450f21009c
:1019f000864a78000042eb0084427800570f2100ad
:101a0000854b7800540d210014427800e24f5200bb
:101a100036003a0054868000a4429000e0c2620082
:101a20000534a0002542980034439000c5cfb30090
:101a3000854263003542980054868000451021009d
:101a4000f60f200006836200c4439000e0c36300e9
:101a500006c3730046429800c82ade005443900033
:101a600060436300854273005542980054868000ad
:101a70009442780060c3620085c4b300854273005d
:101a8000054a780094429000e0c262001542980036
:101a90005486800055868000954378000783fb00bc
:101aa000954290008582fb00c82add008502730004
:101ab000050378000508200086827200f60f2000da
:101ac0000683620094437800e0c3630006c373009a
:101ad000064a7800c82ade00144390006043630081
:101ae000854273001542980042003700141021000f
:101af000144278000482fb002510210095427800f2
:101b00008582fb00c82add0005027200840278008d
:101b1000d4868000848f5200090031001410210007
:101b2000144278000482fb002510210095427800c1
:101b30008582fb00c82add0005027200d486880079
:101b4000350107008486800045102100f60f200033
:101b500006836200c4439000e0c3630006c37300c1
:101b600046429800c82ade00544390006043630058
:101b70008542730055429800848680009442780024
:101b800060c3620085c4b30085427300054a7800d3
:101b900094429000e0c26200154298008486800062
:101ba00085868000954378000783fb00954290006e
:101bb0008582fb00c82add008502730005037800da
:101bc0000508200086827200f60f2000068362005e
:101bd00094437800e0c3630006c37300064a7800ac
:101be000c82ade00144390006043630085427300fe
:101bf000154298000080fa00000006000400fa0078
:101c0000204798003147980004002100040f780015
:101c10002e4290000482fb000402420084027800fd
:101c20003e4290000482fb00048242004422dd0018
:101c30001e0f42009e027800154278000470a10039
:101c4000844a78003e429000e04f520007003a007c
:101c50002e4290000482fb0084024200c40c21004a
:101c6000048242001e0a7800060037002e429000cf
:101c70000482fb0084024200040d21000482420021
:101c80001e0a78009e027800154278000460a100c8
:101c9000844a78001e027800e8024200154278006b
:101ca0000460a000844a78000080fa00000006006a
:101cb0000000fa00caa4a900c5868000040820001c
:101cc00004826200e00f52006c003a00e50d210032
:101cd0009542780004c8b30004c26200e04f52008d
:101ce0001300320024c0b30004437800550d2100d6
:101cf000864a7800540f2100144278000404a200a0
:101d0000e04f52000100320035ff07000042eb00b7
:101d100084427800370f2100854b78000042eb00a9
:101d200084437800260f2100074b7800b800370065
:101d300054868000a4429000e0c262000534a000f6
:101d40002542980034439000c5cfb300854263001c
:101d50003542980054868000b50f2100f60f200010
:101d600006836200c4439000e0c3630006c37300af
:101d700046429800c82ade00544390006043630046
:101d80008542730055429800548680009442780042
:101d9000e0c26200c540b300054a7800944290005a
:101da000e0c262001542980054868000558680008b
:101db000954378000783fb00954290008582fb00e5
:101dc000c82add008502730005037800050820009d
:101dd00086827200f60f200006836200944378002a
:101de000e0c3630006c37300064a7800c82ade0019
:101df00014439000604363008542730015429800cd
:101e00008486800094427800e0c262000524a0002d
:101e1000054a780094429000e0c2620015429800a2
:101e20008486800085868000954378000783fb00c8
:101e3000954290008582fb00c82add008502730070
:101e4000050378000508200086827200f60f200046
:101e50000683620094437800e0c3630006c3730006
:101e6000064a7800c82ade001443900060436300ed
:101e7000854273001542980065003700b50f2100b8
:101e80009542780004c8b30004c26200e04f5200db
:101e90001900320014c0b30004437800550d21002e
:101ea000864a7800440f2100144278000404a200fe
:101eb000e04f520001003200c9fe07000042eb0073
:101ec00084427800370f2100854b78000042eb00f8
:101ed00084437800260f2100074b7800140f21005f
:101ee000144278000404a200e04f5200480032007f
:101ef0001bfe07004600370024c0b30004437800ef
:101f0000550d2100864a780054868000a442900036
:101f1000e0c262000534a0002542980034439000de
:101f2000c5cfb300854263003542980054868000d7
:101f3000b50f2100f60f200006836200c443900015
:101f4000e0c3630006c3730046429800c82ade005f
:101f500054439000604363008542730055429800eb
:101f60005486800094427800e0c262000524a000fc
:101f7000054a780094429000e0c262001542980041
:101f80005486800055868000954378000783fb00c7
:101f9000954290008582fb00c82add00850273000f
:101fa000050378000508200086827200f60f2000e5
:101fb0000683620094437800e0c3630006c37300a5
:101fc000064a7800c82ade0014439000604363008c
:101fd00085427300154298000042eb0004437800ec
:101fe000350f2100864a78000042eb0084427800d9
:101ff000270f2100854b7800140f21001442780030
:102000000404a200e04f520001003200d4fd07009a
:102010000080fa00000006000200fa0084c0b3004d
:10202000044f7800d4868000e70f520013003e0072
:10203000d4868000044f7800440d210014427800bb
:10204000e04f520005003a0014c0b300044378008a
:10205000450d2100864a780008003700440d210014
:1020600014427800e14f520004003a0024c0b3004b
:1020700004437800450d2100864a7800d58680000b
:102080001e4378000682fb0004825200d48688003a
:10209000848680001e4378008682fb00f63f200085
:1020a00086826200f60f200006836200a44390003f
:1020b000e0c3630006c3730026429800c82ade000e
:1020c000e3826200e3c26200b4439000c6cfb30073
:1020d00006c3630085427300354298004410210016
:1020e00024878800c486800061026200e00f5200ed
:1020f00017003a000900370025878000b486800069
:1021000014437800864a78008502e8002587880015
:102110000402e800b48688001e4fe9001e427800e1
:10212000e04f5200f4ff3a000c0037002587800092
:10213000b486800014437800864a78008502e8005f
:10214000258788000402e800b48688001e4fe90055
:102150001e427800e04f5200f4ff3a000080fa007f
:10216000000006000200fa0044868000a4429000ad
:102170008582fb00344290000482fb00630262000f
:102180004822dd0004827200044f78001e4278006d
:102190008482fb00f48680004822de0007878000ee
:1021a000f60f2000068363004833dd00060272004c
:1021b000848f520008003600f48680004822de003a
:1021c00006878000f50f200085026300c82add0025
:1021d00005027200044f7800f48680004822de0079
:1021e00006878000f50f200085026300c82add0005
:1021f00005027200840278001e4378000682fb000c
:1022000004825200f50f200085026200c82add001a
:10221000f7868000f60f2000068363008682720036
:10222000f5868800c822de00f40f200004826200d8
:102230000687800005f02f0085026300050272000a
:10224000048788000042eb00144798000c00370018
:10225000e48680009e4290000583fb00451021002b
:102260008502430095427800054a78000402e800a0
:10227000e48688001e4290000442e800144798005b
:102280001e4290009e4f5200f1ff3900f4868000fc
:102290004822de0006878000f50f200085026300db
:1022a000c82add0005027200e00f52005a00320019
:1022b00054868000a4429000e0c262000534a00071
:1022c0002542980034439000c5cfb3008542630097
:1022d000354298005486800045102100f60f2000fa
:1022e00006836200c4439000e0c3630006c373002a
:1022f00046429800c82ade005443900060436300c1
:10230000854273005542980044868000144278004c
:102310000444b200e04f520020003a00548680008e
:102320009442780060c3620085c4b30085427300a4
:10233000054a780094429000e0c26200154298007d
:102340005486800055868000954378000783fb0003
:10235000954290008582fb00c82add00850273004b
:10236000050378000508200086827200f60f200021
:102370000683620094437800e0c3630006c37300e1
:10238000064a7800c82ade001443900060436300c8
:1023900085427300154298006b0037005486800018
:1023a00094427800e0c262000534a000054a78003b
:1023b00094429000e0c2620015429800548680006a
:1023c00055868000954378000783fb009542900076
:1023d0008582fb00c82add008502730005037800b2
:1023e0000508200086827200f60f20000683620036
:1023f00094437800e0c3630006c37300064a780084
:10240000c82ade00144390006043630085427300d5
:10241000154298004c00370054868000a44290007a
:10242000e0c262000534a0002542980034439000c9
:10243000c5cfb300854263003542980054868000c2
:10244000b50f2100f60f200006836200c443900000
:10245000e0c3630006c3730046429800c82ade004a
:1024600054439000604363008542730055429800d6
:102470005486800094427800e0c262000524a000e7
:10248000054a780094429000e0c26200154298002c
:102490005486800055868000954378000783fb00b2
:1024a000954290008582fb00c82add0085027300fa
:1024b000050378000508200086827200f60f2000d0
:1024c0000683620094437800e0c3630006c3730090
:1024d000064a7800c82ade00144390006043630077
:1024e0008542730015429800048780004822de0070
:1024f00016878000f50f200085026300c82add00e2
:1025000005027200e00f52000800320004878000cc
:102510004822de0016878000f50f20008502630048
:10252000c82add000502720004000100def0a900e7
:10253000140f2100144278000404a200e04f52005e
:102540000100320086fc07000080fa00000006004f
:102550000200fa00d8f0a800220020008000eb0062
:10256000204e200031f80700020420008000eb001c
:10257000000021002df80700ca24a8000042eb004b
:10258000044f78000d0037001e4278008482fb0063
:10259000c40e2100048242008042eb00054a78000c
:1025a0001e4378008682fb00e40e21000482420074
:1025b0008042eb00054a78001e4fe8001e4278007a
:1025c000e14f5200f0ff3600120020008000eb00c7
:1025d000700c210015f80700ca24a900040121008d
:1025e0008486880004002100448688004486800098
:1025f00054868800d40f21001442780004437800e8
:10260000650c2100864a7800640c21001442780091
:10261000e04f520003003a000401200024868800a5
:102620000600370012002000610c2100100020007d
:10263000890a070004022000248688000080fa002e
:10264000000006000000fa00b50f21009542780056
:1026500004c8b30084cf52004d003a0004ccb3004c
:1026600004437800850d2100864a7800e40f21009c
:10267000144278000482fb00e20f5200090032008d
:10268000e30f520026003200e10f52003b003a00f7
:1026900084322800b486880024012000d486880073
:1026a0003b003700d40f210014427800e04f520065
:1026b00016003a00d40f2100144278000482fb0077
:1026c0000402420084027800843e28000482420012
:1026d00014027800b4868800b48680000482e80082
:1026e0001442780004437800a50d2100864a780042
:1026f000b4868000630242001442780004437800ec
:10270000b50d2100864a7800210037000042eb0019
:1027100004437800850d2100864a78001c003700ac
:10272000d40f210014427800e24f52000e003e0008
:10273000d40f2100144278000482fb0004024200fe
:1027400084027800a43e280004824200140278002b
:10275000b4868800b4868000144278000482fb00ae
:10276000d48688000a0037000042eb00044378005a
:10277000850d2100864a7800050037000042eb00f5
:1027800004437800850d2100864a7800000000008f
:102790000080fa00000006000200fa000042eb0090
:1027a0000443780045102100864a78000042eb007f
:1027b0000443780055102100864a7800b40f2100a8
:1027c000144278007f4262000482fb00e10f520055
:1027d00010003200e20f520010003200e00f5200f1
:1027e0003b003a00d8f0a800640e210014427800a3
:1027f000e04f5200310032004410210014427800b2
:102800000414a0000443780045102100864a780093
:102810002f003700d8f0a8002d003700d8f0a8000e
:10282000f50f21009542780004c8b30004c262008d
:10283000e04f520009003a00f40f210014427800e2
:102840006f4262000482fb0084024200c40c21003b
:1028500004824200140f780008003700f40f2100b2
:10286000144278006f4262000482fb00840242003e
:10287000040d210004824200140f78001e0278002b
:102880009442780004c8b30004c26200e04f5200d2
:102890000c0032001e02780014427800644262008c
:1028a000e04f52000900320014c0b3000443780026
:1028b00045102100864a780005003700000000001e
:1028c0000300370000000000010037000000000096
:1028d000c58680000408200004826200e00f5200d8
:1028e0000700320044102100b4868800d810a800e8
:1028f00024c0b30004437800a50d2100864a780067
:102900000080fa00000006000000fa0004278000a2
:1029100062026200e00f52003500320044868000ff
:10292000144378008682fb00144290000482fb006e
:102930004822dd000482720084027800040820002e
:10294000848f520029003a008486800094437800e6
:102950008782fb00144290000482fb004822dd00c5
:10296000048272008402780044082000848f5200a0
:102970001e003a004486800094427800e0c2620063
:10298000c540b300054a780094429000e0c262005e
:102990001542980044868000458680009543780063
:1029a0000783fb00954290008582fb00c82add006a
:1029b00085027300050378000508200086827200f6
:1029c000f60f20000683620094437800e0c36300a2
:1029d00006c37300064a7800c82ade00144390003c
:1029e000604363008542730015429800e024a9000b
:1029f00004082000042688000080fa000000060079
:102a00000000fa008a84a80004012000042688003f
:102a100014c0b30004437800750e2100864a780084
:102a20000042eb0004437800a50f2100864a78009d
:102a30000001eb008000eb00500720008609070032
:102a40000080fa00000006000000fa000042eb00df
:102a500004437800750e2100864a78000001eb00df
:102a60008000eb00400720007b0907008a84a90052
:102a700004012000442488000042eb000443780055
:102a8000a50f2100864a78000080fa0000000600a9
:102a90000200fa00d4c2b30004437800050f2100fd
:102aa000864a7800840e2100144278008482fb005c
:102ab000b4ff2f0004826200e00f520050003a0081
:102ac000840e2100144278000482fb004222de00c2
:102ad000044278000482fb00c322dd0004002100d0
:102ae0000482420044868800448680005486880020
:102af000a40c2100a50c2100954278000534a20009
:102b0000054a78004486800014427800c6c3b300aa
:102b10008642620044c3b30084cf520036003a00bc
:102b20000042eb00044f7800210037001e4278007d
:102b30008482fb00b40f210084824200448680001e
:102b4000444390000683fb00544290000482fb0043
:102b50004822dd000402730014427800844a7800a1
:102b600044868000c44290008582fb00544390005c
:102b70000683fb004833dd00868272008502e80090
:102b8000f60f200006836200c4439000e0c3630098
:102b900006c3730046429800c82ade0054439000e2
:102ba0006043630085427300554298001e4fe80061
:102bb0001e427800e74f5200dcff3600448680005a
:102bc000b50f2100f60f200006836200c443900079
:102bd000e0c3630006c3730046429800c82ade00c3
:102be000544390006043630085427300554298004f
:102bf0000d0007000a0037008a00070008003700b0
:102c0000840e2100144278008482fb00b4ff2f0060
:102c100004826200e80f520001003a00cc00070075
:102c20000080fa00000006000000fa000042eb00fd
:102c300004437800450d2100864a78000042eb00ed
:102c400084427800170f2100854b78000042eb008a
:102c500084437800460f2100074b78000042eb00c8
:102c600004437800550f2100864a78000042eb00ab
:102c700084427800a70e2100854b78000042eb00cb
:102c800084437800560d2100074b7800848680002d
:102c900085868000954378000783fb00954290006d
:102ca0008582fb00c82add008502730005037800d9
:102cb000f5f72f0085026300f60f200006836200ff
:102cc00094437800e0c3630006c37300064a7800ab
:102cd000c82ade00144390006043630085427300fd
:102ce00015429800040d2100050d21009542780041
:102cf0000534a200054a780084868000858680001d
:102d0000954378000783fb00954290008582fb0085
:102d1000c82add008502730005037800f5f72f004f
:102d200085026300f60f200006836200944378005a
:102d3000e0c3630006c37300064a7800c82ade00b9
:102d4000144390006043630085427300154298006d
:102d5000040d2100050d2100954278000534a200e4
:102d6000054a780054868000558680009543780097
:102d70000783fb00954290008582fb00c82add0096
:102d80008502730005037800f5f72f0085026300c4
:102d9000f60f20000683620094437800e0c36300ce
:102da00006c37300064a7800c82ade001443900068
:102db0006043630085427300154298000042eb00b7
:102dc00004437800850d2100864a78000002eb005c
:102dd000d48688000042eb0084427800e70d210091
:102de000854b7800f5868000f40f20000482620095
:102df000f48688000587800004f02f0004826200ba
:102e000004878800040107000001eb008000eb004c
:102e10003000200090080700a5fb07000080fa00a2
:102e2000000006000000fa00540d21001442780052
:102e3000e24f520002003a00cafc0700420037008d
:102e40000042eb0004437800550d2100864a7800cb
:102e5000a40e2100144278000404a200e04f5200a6
:102e60003500320054868000a4429000e0c2620027
:102e70000534a0002542980034439000c5cfb3002c
:102e8000854263003542980054868000b50f2100ca
:102e9000f60f200006836200c4439000e0c3630085
:102ea00006c3730046429800c82ade0054439000cf
:102eb0006043630085427300554298005486800049
:102ec00094427800e0c26200c540b300054a780031
:102ed00094429000e0c2620015429800548680003f
:102ee00055868000954378000783fb00954290004b
:102ef0008582fb00c82add00850273000503780087
:102f00000508200086827200f60f2000068362000a
:102f100094437800e0c3630006c37300064a780058
:102f2000c82ade00144390006043630085427300aa
:102f300015429800040037000042eb00044378007b
:102f4000a50e2100864a78000080fa0000000600e5
:102f50000200fa0084868000944278000582fb001b
:102f60004622de0061426200044f7800040d210019
:102f7000050d2100954278000534a200054a78002d
:102f800024868000e80f52000e003a00d40f210082
:102f9000144278008482fb00f4072000048262005f
:102fa0006426880064268000e00f5200030032008f
:102fb000040120002486880002003700440020001d
:102fc00024868800540d210014427800e14f5200fd
:102fd00073003a008486800045102100f60f20001f
:102fe00006836200c4439000e0c3630006c373001d
:102ff00046429800c82ade005443900060436300b4
:10300000854273005542980003fc0700440d2100df
:1030100014427800e24f52001f003a00848680007c
:1030200094427800e0c262000524a000054a7800be
:1030300094429000e0c262001542980084868000ad
:1030400085868000954378000783fb0095429000b9
:103050008582fb00c82add00850273000503780025
:103060000508200086827200f60f200006836200a9
:1030700094437800e0c3630006c37300064a7800f7
:10308000c82ade0014439000604363008542730049
:10309000154298005e0037001e427800e04f520053
:1030a00020003a00848680009442780060c3620069
:1030b00085c4b30085427300054a780094429000ad
:1030c000e0c26200154298008486800085868000f8
:1030d000954378000783fb00954290008582fb00b2
:1030e000c82add008502730005037800050820006a
:1030f00086827200f60f20000683620094437800f7
:10310000e0c3630006c37300064a7800c82ade00e5
:103110001443900060436300854273001542980099
:103120003b0037008486800094427800e0c2620051
:103130000534a000054a780094429000e0c2620085
:10314000154298008486800085868000954378002b
:103150000783fb00954290008582fb00c82add00b2
:10316000850273000503780005082000868272003e
:10317000f60f20000683620094437800e0c36300ea
:1031800006c37300064a7800c82ade001443900084
:103190006043630085427300154298001c003700ad
:1031a000e50d21009542780004c8b30004c2620016
:1031b000e04f520012003200048780004822de00f7
:1031c00016878000f50f200085026300c82add0005
:1031d00005027200e00f52000800320004878000f0
:1031e0004822de0016878000f50f2000850263006c
:1031f000c82add000502720004000100def0a9000b
:103200000042eb0004437800550d2100864a780007
:103210000080fa00000006000000fa00b40f210050
:10322000144278000446b200e04f520047003a00d2
:10323000c40f2100144278000482fb00cfa2de00fc
:10324000b600200007002000860f5200878f5a002a
:1032500040003e00040601001c0037001d0037003e
:103260003e0037001b0037003c00370006003700e7
:1032700009003700300037000b0037000800370026
:103280001600370022003700d8f0a8008400200084
:103290002486880032003700eafc0700300037003f
:1032a000abfc07002e003700640c2100b4868800b8
:1032b000d810a80014c0b30004437800a50d210065
:1032c000864a7800d8f0a8002500370032fd0700b4
:1032d000230037002400070021003700f40f2100ed
:1032e000144278008482fb00740c210004824200a6
:1032f000b4868800d810a80014c0b3000443780036
:10330000a50d2100864a7800d8f0a80014003700e7
:10331000d8f0a800f40f2100144278000483fb00c9
:10332000d50f210095427800740c2100040243005f
:10333000054a78000a0037000001eb008000eb002e
:1033400020002000440707000500370000000000af
:1033500003003700000000000100370000000000fb
:103360000080fa00000006000600fa00d40f2100d9
:1033700014427800e14f520013003a00b40f2100cc
:10338000144278007f426200e04f52000e003a0083
:10339000d8f0a800c40f210014427800e34f520077
:1033a00005003a0014c0b30004437800650e210004
:1033b000864a7800040037000042eb00844278001f
:1033c000670e2100854b7800d40f2100144278004d
:1033d000e04f52006f013a00b40f21001442780010
:1033e0007f426200e24f52006a013a00f40f21006e
:1033f000144278006f426200e04f520065013200d3
:10340000f40f2100144278006f4262000482fb0036
:10341000e10f52005f013c0025868000040220007d
:10342000848f52005b013a00d8f0a800f50f21000c
:103430009542780004c8b30004c26200e04f520015
:1034400012003a00f40f2100144278006f4262002b
:103450000482fb0084024200c40c2100048242006a
:103460001402780014079800f40f21001442780029
:103470006f4262008482fb00e40e2100048242005d
:10348000144278004447980011003700f40f2100df
:10349000144278006f4262000482fb008402420002
:1034a000040d2100048242001402780014079800e1
:1034b000f40f2100144278006f4262008482fb0006
:1034c000c40e210004824200144278004447980050
:1034d0004e42900061426200e04f520007003a0005
:1034e0000e82e8008e82e8001543780075cfb300a5
:1034f00085426300054a7800050037000e82e80027
:103500008e82e800954278000534a000054a7800d4
:10351000f50f21009542780004c8b30004c2620090
:10352000e04f52000a003a00f40f210014427800e4
:103530006f4262000482fb009e029000040342007e
:10354000c40c210004024300050a7800090037007a
:10355000f40f2100144278006f4262000482fb00e5
:103560009e02900004034200040d21000402430067
:10357000050a7800c40f210014427800e34f52007e
:103580004a003a001e0290009442780004c8b3003a
:1035900004c26200e04f520019003200f50f210012
:1035a0009542780004c8b30004c26200e04f5200a4
:1035b0000a003a00f40f2100144278006f426200c2
:1035c0008482fb00e40e21008482420015427800d0
:1035d0000410a000844a780009003700f40f21008d
:1035e000144278006f4262008482fb00c40e210006
:1035f00084824200154278000410a000844a7800ba
:103600001e0290009e029000954378000783fb0005
:10361000954290008582fb00c82add008502730078
:103620000520a000f60f2000068362009443780076
:10363000e0c3630006c37300064a7800c82ade00b0
:103640001443900060436300854273001542980064
:103650001e0290009e029000954378000783fb00b5
:10366000954290008582fb00c82add008502730028
:10367000050378000508200086827200f60f2000fe
:103680000683620094437800e0c3630006c37300be
:10369000064a7800c82ade001443900060436300a5
:1036a0008542730015429800ba0037000e82e80088
:1036b0008e82e800954278000534a200054a780021
:1036c0001e0290009442780004c8b30004c2620055
:1036d000e04f5200320032001e0290009e02900025
:1036e000954378000783fb00954290008582fb009c
:1036f000c82add008502730005037800f5f72f0066
:1037000085026300f60f2000068362009443780070
:10371000e0c3630006c37300064a7800c82ade00cf
:103720001443900060436300854273001542980083
:103730001e0290009e029000954378000783fb00d4
:10374000954290008582fb00c82add008502730047
:10375000050378000504200086827200f60f200021
:103760000683620094437800e0c3630006c37300dd
:10377000064a7800c82ade001443900060436300c4
:1037800085427300154298001e029000220020001e
:1037900084007800500020002f0607001600370034
:1037a0001e0290009e029000954378000783fb0064
:1037b000954290008582fb00c82add0085027300d7
:1037c000050378000504200086827200f60f2000b1
:1037d0000683620094437800e0c3630006c373006d
:1037e000064a7800c82ade00144390006043630054
:1037f00085427300154298000e82e8008e82e80030
:10380000954278000534a200054a78004e429000a7
:1038100062426200e04f520006003a001e02900031
:103820009442780004c8b30004c26200e04f520022
:1038300035003200f50f21009542780004c8b3002e
:1038400004c26200e04f52000a003a00f40f210067
:10385000144278006f4262008482fb00e40e210073
:1038600084824200154278000410a100844a780046
:1038700009003700f40f2100144278006f42620003
:103880008482fb00c40e210084824200154278002d
:103890000410a100844a78001e0290009e0290004d
:1038a000954378000783fb00954290008582fb00da
:1038b000c82add008502730005037800b5f32f00e8
:1038c00085026300f60f20000683620094437800af
:1038d000e0c3630006c37300064a7800c82ade000e
:1038e00014439000604363008542730015429800c2
:1038f0001e0290002200200084007800500020006a
:10390000d5050700160037001e0290009e029000a9
:10391000954378000783fb00954290008582fb0069
:10392000c82add008502730005037800b5f32f0077
:1039300085026300f60f200006836200944378003e
:10394000e0c3630006c37300064a7800c82ade009d
:103950001443900060436300854273001542980051
:10396000054e2000f40f2100144278006f426200df
:103970000482fb0004024200048f42001e02780011
:1039800094427800d4cfb30084c262001e02780053
:10399000054a78000080fa00000006000000fa00e6
:1039a000b4878000c587800061024200e0824a003f
:1039b000b4878800c5878800740e210014427800ff
:1039c0000404a200e04f52000e003200a40f2100b8
:1039d000144278000442e80004437800a50f210057
:1039e000864a7800a40f210014427800e04f52006c
:1039f00004003a0000c2eb0004437800a50f210048
:103a0000864a78000080fa00000006000400fa00f0
:103a1000b4878000c5878000048fbe00b487800013
:103a2000c58780001e03be00840f5300858f5b0096
:103a3000f7ff3a001e02be000400be000080fa003c
:103a4000000006000000fa00f43f20001430880057
:103a500034382800043088001400200064308800c6
:103a600000352c0001002000390107000002eb00a6
:103a700024308800840320004430880000b22c00e9
:103a800001002000320107000002eb002430880012
:103a9000c400200044308800007d20000100200088
:103aa0002b0107000002eb00243088006400200096
:103ab0004430880000772100010020002401070025
:103ac0006f00070014c0b300044078000080fa00c3
:103ad000000006000400fa00000f780011079800ab
:103ae0000b0037001e027800144278000402fb002d
:103af000e00f5200120032001e02780014427800db
:103b00001e0fe800044078001000070000000000cd
:103b10001e02900004f0a7000402ea000402ea007a
:103b20004f22de00044278009e0290008502e900e8
:103b300015079800e04f5200eaff3a0001003700f5
:103b4000000000000080fa00000006000200fa00f9
:103b5000004f78001e02fb00ea0f520007003200ff
:103b6000ed0f520003003200e80f52000b0032004c
:103b70000f0037005b0007003f0037008411210071
:103b800014427800e04f520002003a00e5000700be
:103b900039003700d8000700370037006b000700f6
:103ba00000c2b300e9ff07006800070032003700d9
:103bb00014002000243088001e02fb0044308800de
:103bc000007d200001002000e10007009411210089
:103bd000144278000442e800044378009511210063
:103be000864a78009411210014427800f04f520068
:103bf00020003a000042eb000443780095112100b8
:103c0000864a78008411210014427800e04f520067
:103c10000c003a000002eb0024308800040c200065
:103c2000443088000077210001002000c800070010
:103c300014c0b3000443780085112100864a78003f
:103c40000d0037000002eb0024308800040820003b
:103c5000443088000077210001002000bc000700ec
:103c60000042eb000443780085112100864a780069
:103c700001003700000000000080fa00000006008c
:103c80000000fa000002eb0024308800140020003d
:103c9000443088000077210001002000ac000700bc
:103ca0000002eb002430880024002000443088000b
:103cb0000077210001002000a50007000042eb0072
:103cc0000443780085112100864a78000042eb0009
:103cd0000443780095112100864a78000080fa009c
:103ce000000006000000fa00841121001442780050
:103cf000e04f520008003a000002eb002430880038
:103d000004082000443088000077210001002000d2
:103d10008f000700070037000002eb002430880006
:103d2000040c2000443088000077210001002000ae
:103d3000870007000042eb00044378009511210042
:103d4000864a78000080fa00000006000200fa00af
:103d50009411210014427800e04f520024003a00f0
:103d60008411210014427800e04f52000c003a0008
:103d70000002eb0024308800040c2000443088004e
:103d800000772100010020007100070014c0b3007b
:103d90000443780085112100864a78000b00370023
:103da0000002eb0024308800040820004430880022
:103db0000077210001002000650007000042eb00b1
:103dc0000443780085112100864a78000042eb0008
:103dd000044f780002003700140007001e4fe8006f
:103de0001e427800ee4f5200fbff36000d003700f8
:103df00094112100144278000442e9000443780041
:103e000095112100864a78000002eb0024308800da
:103e10000401200044308800007d200001002000c3
:103e20004b0007000080fa00000006000000fa00c6
:103e30000002eb0024308800440120004430880058
:103e4000007d2000010020004100070094112100a6
:103e5000144278000442e8000443780095112100e0
:103e6000864a78009411210014427800f04f5200e5
:103e70001f003a000042eb00044378009511210036
:103e8000864a78008411210014427800e04f5200e5
:103e90000c003a000002eb0024308800040c2000e3
:103ea000443088000077210001002000280007002e
:103eb00014c0b3000443780085112100864a7800bd
:103ec0000b0037000002eb002430880004082000bb
:103ed0004430880000772100010020001c0007000a
:103ee0000042eb000443780085112100864a7800e7
:103ef0000080fa00000006000200fa000042eb0019
:103f0000044f78000200370090ff07001e4fe800c2
:103f10001e427800ef4f5200fbff36000080fa008f
:103f2000000006000200fa000042eb00044f780097
:103f300002003700bdff07001e4fe8001e42780058
:103f4000ef4f5200fbff36000080fa000000060031
:103f50000400fa00008fbe000500370000000000da
:103f60000082eb008082eb001e0f42005e974a0049
:103f70001e02be00e00f5200e08f5a00f7ff3a0029
:103f80000080fa00000006000200fa00004f7800ee
:103f90001e427800e04f5200080032000002eb00a1
:103fa00024308800f400200044308800007721008d
:103fb00001002000e6ff0700070037000002eb00c9
:103fc00024308800c400200044308800007721009d
:103fd00001002000deff07000080fa00000006005c
:103fe0000200fa00881f7800000f780027002000e8
:103ff0006504200076052000207420000548780024
:104000000648780007487800540520007439880075
:10401000a40a20007439880027a6a8002706a80053
:104020002726a8001e02780014427800e04f5200b4
:10403000200032001e027800144290000482fb002f
:10404000243188001e027800244290000482fb0084
:10405000c822dd001e027800344290000482fb007a
:1040600005027200243188001e027800444290004c
:104070000482fb00c822dd001e027800544290003a
:104080000482fb0005027200243188001e027800c1
:10409000644290000482fb00c822dd001e0278000a
:1040a000744290000482fb000502720024318800f3
:1040b000340037001e02780014429000044078005b
:1040c000d8000700004278000482fb0024318800f9
:1040d0001e0278002442900004407800d1000700be
:1040e000004278000482fb004824dd001e027800b4
:1040f0003442900004407800ca0007000042780073
:104100000482fb0008027200243188001e0278003d
:104110004442900004407800c2000700004278004a
:104120000482fb004824dd001e0278005442900007
:1041300004407800bb000700004278000482fb00c6
:1041400008027200243188001e0278006442900048
:1041500004407800b3000700004278000482fb00ae
:104160004824dd001e02780074429000044078006c
:10417000ac000700004278000482fb0008027200d5
:104180002431880004002800343188004f0478006e
:104190000080fa00000006000e00fa006007980098
:1041a0002706a8002726a800343180004c22de0014
:1041b000614262000482fb0004f0a7000402ea00ee
:1041c0000402ea004f22de00044f78002431800010
:1041d000140798001e029000844278006e0290003e
:1041e0001542980024318000140798001e029000a8
:1041f0004822de00844278006e029000254298003a
:104200001e029000844278006e02900035429800b1
:1042100024318000140798001e0290004822de001e
:10422000844278006e029000454298001e02900081
:10423000844278006e02900055429800243180003c
:10424000140798001e0290004822de008442780085
:104250006e029000654298001e0290008442780031
:104260006e029000754298001e427800e04f5200a6
:10427000340032006402470082002000ee0090000b
:1042800004007800e0f007002706a8002726a80011
:1042900024318000844278006e029000154298001c
:1042a00024318000140798001e0290004822de008e
:1042b000844278006e029000254298001e02900011
:1042c000844278006e0290003542980024318000cc
:1042d000140798001e0290004822de0084427800f5
:1042e0006e029000454298001e02900084427800c1
:1042f0006e02900055429800243180001407980007
:104300001e0290004822de00844278006e02900077
:10431000654298001e029000844278006e02900070
:1043200075429800640247008200200084007800f3
:104330006e0090009df0070000027800e00f520030
:10434000ccff3a006e029000144278000404a200f0
:10435000e04f5200310032006e0290001442900093
:10436000044078004600070000427800ee0290000a
:10437000944298006e02900024429000044078001d
:104380003f00070000427800ee029000a44298002f
:104390006e0290003442900004407800380007001c
:1043a00000427800ee029000b44298006e02900045
:1043b0004442900004407800310007000042780039
:1043c000ee029000c44298006e02900054429000a9
:1043d000044078002a00070000427800ee029000b6
:1043e000d44298006e02900064429000044078002d
:1043f0002300070000427800ee029000e44298009b
:104400006e02900074429000044078001c00070087
:1044100000427800ee029000f44298000080fa001a
:10442000000006000200fa00004f78001e407800ed
:104430008082fb00a4002000110009008482d800c3
:1044400000027800044278000482fb004422dd0070
:10445000844278001e4278000483fb00a400200000
:10446000110009000483d80001027800044278009a
:1044700004c27200044078000080fa0000000600c8
:104480000200fa00004f78009e4278000582fb008f
:104490004422de0004427800ea22b9008442780017
:1044a0001e4378006f42630004c24200044078005b
:1044b0000080fa00000006000400fa0010079800cf
:1044c0000042eb00044f7800130037009e42780052
:1044d0000582fb00ea22b90084027800c4102100a2
:1044e00004824200940278001e029000848f5200e1
:1044f00008003a009e4278000582fb00ea22b900db
:1045000084027800c4102100048242008002eb0083
:10451000050a78001e4fe8001e427800e04f520066
:10452000eaff32000080fa00000006000800fa00ee
:104530001007980022079800330798000042eb000c
:10454000044f7800250037009e4278000582fb006a
:10455000ea22b90084027800c410210004824200db
:1045600014027800e00f52001b003a001e4378004e
:104570000682fb00ea22b90084027800c410210000
:10458000048242009e039000070a78009e42780051
:104590000582fb00ea22b90084027800e4102100c1
:1045a000048242002e039000be039000068abe00e3
:1045b0009e4378000782fb00ea22b900840278005b
:1045c00024112100048342006022b800048bbe0045
:1045d00014c0b300050037001e4fe8001e427800eb
:1045e000e04f5200d8ff32000042eb000440780058
:1045f0000080fa00000006000200fa00000f7800b8
:104600001e027800e10f520018003200e10f520044
:1046100003003900e20f5200270032002900370062
:10462000a20020008000eb00c0102100ffef070077
:10463000244280000400a0000410a1000420a10076
:10464000244288000108a9000002eb0054088800f9
:10465000047d20007408880004012a009408880062
:104660002108a80014c0b30017003700a2002000e2
:104670008000eb00c0102100ecef07000442800036
:1046800004c0a10004d0a10004e0a00004428800fe
:104690000068a9000002eb0004088800040028005c
:1046a0001408880024002800240888002068a80036
:1046b00014c0b300040037002108a90014c0b300df
:1046c000010037000042eb00044078000080fa004f
:1046d000000006003600f800809fbe00829fbe00ea
:1046e000849fbe00869fbe003200f800002020009c
:1046f00090018800000000000200fa000042eb0078
:10470000044f7800390037009e4278000582fb0094
:10471000ea22b90084027800c41021000482420019
:1047200014027800e00f52002f0032001e42780081
:104730000483fb00ea32b900e6024200c410210003
:10474000048242001402be0061024200e0824a007c
:10475000ea33b9008603780026112100068343005e
:10476000048bbe009e4278000582fb00ea22b9005d
:10477000e6024200c4102100048242001403be007d
:104780009e4278000582fb00ea22b9008482e8009c
:10479000c4102100048242001402be00840f5300a2
:1047a000858f5b0010003a009e4278000582fb0076
:1047b000ea22b90084027800c41021000482420079
:1047c00014027800040001009e4278000582fb007c
:1047d000ea22b900840278002411210004834200f7
:1047e0006022b800048bbe001e4fe8001e42780015
:1047f000e04f5200c4ff32000108a9000080fa0017
:104800003200f9004f03be004f02be004f01be0050
:104810004f00be003600f900004006000400fa0018
:10482000100798001e029000e40f520004003200ae
:10483000e50f52000400320000c2eb001200370006
:104840000000000001003700000000001e00900082
:104850001000070000027800a500200011000900e8
:104860000582d80000027800044f780044c6b300e7
:104870009e42780084cf52000200360044c6b30046
:10488000044f78001e427800044078000080fa004f
:10489000000006000400fa00100798001e029000b5
:1048a000e40f520004003200e50f52000400320011
:1048b0000082eb001d0037000000000001003700ff
:1048c000000000001e029000441988002023a80068
:1048d0000002eb00040f7800010037001e0fe80013
:1048e000743e20009e027800848f5200fbff360049
:1048f0002023a9000002eb00040f7800010037001c
:104900001e0fe800743e20009e027800848f520043
:10491000fbff360000000000041980006102620005
:10492000e00f5200fcff3200041880000400780001
:104930000080fa00000006000200fa00000f780074
:104940001e027800e40f520005003200e50f52000d
:1049500006003a001eaea80014c0b30004003700e1
:104960001e8ea80014c0b300010037000042eb0007
:10497000044078000080fa00000006000200fa00ff
:10498000000f78001e027800e00f520020003a006d
:104990001419800004d0a10004e0a10004f0a100db
:1049a0001419880000c2eb0004437800453220004f
:1049b000864a7800041980000450a1000460a10018
:1049c0000470a100041988002143a9002519800062
:1049d000f40f2e00848262000400210005027200a0
:1049e00024198800041980000480a1000490a1000b
:1049f000041988001519800034f82f000482620021
:104a00001419880021e3a80014c0b3002a0037005d
:104a10001e027800e10f520026003a0004198000bf
:104a20000450a0000460a0000470a00004198800d5
:104a30002143a9002043a8001419800004d0a1003c
:104a400004e0a10004f0a1001419880015198000e9
:104a500034f82f0004826200141988002343a9004f
:104a60002203a900f4c2b3000443780045322000b9
:104a7000864a780025198000f40f2e008482620097
:104a80000430200005027200241988003303a900b5
:104a900021a8a80021e3a8005400200044198800a0
:104aa00001a8a9000002eb008419880014c0b3001b
:104ab000010037000042eb00044078000080fa005b
:104ac000000006000000fa00b40f21001442780034
:104ad0007f426200e14f520074003a00f40f21005f
:104ae00014427800e04f520072003a00c40f2100d7
:104af00014427800e64f520025003a00e40f2100ee
:104b0000144278000482fb0025022000850f520029
:104b10001300320035022000850f520019003200c8
:104b200015022000850f520019003a00640c210084
:104b300014427800e14f520014003a00c4342800b7
:104b4000b486880094002000d486880004ccb3008a
:104b500004437800850d2100864a78000c00370058
:104b6000a43c2800b4868800d4012000d4868800a4
:104b700004ccb30004437800850d2100864a7800f8
:104b800003003700000000000100370000000000b3
:104b9000b40f21001442780006c6b30086426200ba
:104ba00004c2b30084cf520044003a00c40f210075
:104bb000144278000482fb006123b9000082eb00fc
:104bc0008082eb000602420087824a00a600200095
:104bd00007002000860f5200878f5a0038003e00e1
:104be0000406010036003700090037001b003700bb
:104bf0003300370032003700310037003000370013
:104c00002f0037002e0037000a0037001c00370045
:104c1000a4112100b486880014002000d4868800e6
:104c200014ccb30004437800850d2100864a780037
:104c30002300370004c8b30004437800850d210029
:104c4000864a7800b40f2100344290000443780073
:104c5000a5112100864a780019003700b4112100ff
:104c6000b486880014002000d486880014c8b300dd
:104c700004437800850d2100864a78001000370033
:104c800004c8b30004437800850d2100864a7800eb
:104c9000b40f21002442900004437800b511210094
:104ca000864a780000000000050037000000000080
:104cb0000300370000000000010037000000000082
:104cc0000080fa00000006000000fa000002eb007d
:104cd00014868800d1c1b30010c0b3002bf00700c8
:104ce00003c4b300020421008040eb0010c0b300f5
:104cf00043f0070000027800048688000080fa0074
:104d0000000006000200fa0004868000e00f520056
:104d100006003200048680009442780004c8b30084
:104d200004c26200e04f520062003a000404210015
:104d3000144278000482fb0005082000850f520011
:104d40000700320015082000850f520007003200ce
:104d500075032000850f5200280032004e003700f6
:104d600020002000300107004b003700148680002f
:104d7000e00f520006003200148680009442780052
:104d800004c8b30004c26200e04f52003f003a0082
:104d900014c8b3000443780005082100864a78004f
:104da0001000200044010700004278000404a20023
:104db000e04f52000500320014c0b30004437800f5
:104dc00015082100864a7800040037000042eb00f5
:104dd0000443780015082100864a780003c4b30014
:104de0000208210011c0b30010c0b30004f0070096
:104df000000278001486880027003700148680009f
:104e0000e00f5200060032001486800094427800c1
:104e100004c8b30004c26200e04f52001d003a0013
:104e2000500020009bfe070000027800040f78006d
:104e300074c3b3000443780005082100864a780053
:104e40001e0278000442780004437800150821000f
:104e5000864a78001e0278004822de00044278006c
:104e60000443780025082100864a780003c4b30073
:104e70000208210011c0b30010c0b300e0ef07002a
:104e8000000278001486880003003700000000004c
:104e9000010037000000000003c4b3000204210039
:104ea0008040eb0010c0b300d5ef0700000278008f
:104eb000048688000080fa00000006000200fa0064
:104ec000000f78001e027800e10f52003900320016
:104ed000e10f520039003100a4032000343a880069
:104ee000243a80000460a1000470a100243a8800e4
:104ef000253a800004fe2f0004826200243a8800d4
:104f00000002eb00443a88003600200084072000ad
:104f1000a509200037742000844b7800854b780069
:104f2000864b7800160020006404200075052000e0
:104f300027742000844b7800854b7800864b7800de
:104f400000000000153a80000400270084826200ff
:104f500004002300848f5200faff3a00144c220010
:104f6000c43a880074002000d43a880059e7a800a9
:104f700000000000c53a80000400240004826200a2
:104f8000e00f5200fbff32000000eb007bfe070049
:104f90005000200068fe070010002000ac00070051
:104fa00020002000aa00070010002000c800070011
:104fb000030037000000000001003700000000007f
:104fc0000080fa00000006003600f800809fbe0056
:104fd000829fbe00849fbe00869fbe003200f80004
:104fe0000020200090018800000000000000fa006e
:104ff00093ee07000080fa003200f9004f03be0074
:105000004f02be004f01be004f00be003600f90047
:10501000004006000000fa000000eb00a7ff0700b8
:10502000efed0700acf1070024868000ff0f52006f
:1050300001003e0007003700842480006202620005
:10504000e00f520001003200020037002dff070080
:10505000f5ff3700f4ff37000600fa00000f780074
:1050600011079800220798001e02780025072000eb
:10507000850f52002100320025072000850f5200c5
:105080000a003c00e20f52001e003200e20f520004
:1050900003003c00e10f5200140032001a003700f8
:1050a000e30f5200130032001700370045072000bd
:1050b000850f52000b00320045072000850f52007b
:1050c0000400350055072000850f52000300320010
:1050d0000d003700100007000b0037000e0007001e
:1050e000090037000c00070007003700f6fe070034
:1050f0000500370073fe07000300370000000000c2
:10510000010037000000000014c0b3000440780024
:105110000080fa00000006000000fa0084248000ed
:1051200062026200e00f5200030032001000200013
:105130003900070032003700258680000402200075
:10514000848f520014003a00b4888000e10f5200ae
:1051500003003a00100020002b0007002500370054
:10516000b5888000b4042000848f520003003a0008
:1051700010002000280007001e003700b5888000be
:1051800064092000848f5200170036000002eb00f3
:10519000b488880017003700b4888000e10f5200ff
:1051a00003003a001000200017000700110037002c
:1051b000b588800024032000848f520003003a0049
:1051c00010002000140007000a003700b588800096
:1051d000643b2000848f5200050036000002eb0083
:1051e000b488880003003700000000000100370089
:1051f00000000000b48880000402e800b488880041
:105200000080fa00000006000200fa00000f78009b
:105210000080fa00000006000200fa00000f78008b
:105220000080fa00000006000200fa00000f78007b
:105230000080fa00000006000200fa00000f78006b
:105240000042eb00044078000080fa0000000600f5
:105250000200fa00000f78000080fa00000006004b
:020000040000fa
:1052600040100000840000008000000016110000c3
:105270000200000080000000181100000200000081
:10528000800000000c1100000a00000080000000f7
:10529000c410000048000000800000000010000062
:1052a00040000000800000001a1100000200000011
:0852b000800000000000000076
:020000040000fa
:1052b8000200fa00000f78000042eb00044078007a
:1052c8000080fa00000006000200fa00000f7800d3
:0852d8000080fa00000006004e
:020000040000fa
:0200000401f009
:04000800cfffff0027
:020000040000fa
:0200000401f009
:04000c007bffff0077
:020000040000fa
:0200000401f009
:040010009affff0054
:020000040000fa
:0200000401f009
:040014007fffff006b
:020000040000fa
:0200000401f009
:04001800f7ffff00ef
:020000040000fa
:0200000401f009
:04001c00dfffff0003
:020000040000fa
:0200000401f009
:04002000cfffff000f
:00000001FF
